:100000000C9412090C943A090C943A090C943A098C
:100010000C943A090C943A090C943A090C943A0954
:100020000C943A090C943A090C943A090C943A0944
:100030000C943A090C94280D0C943A090C943A0942
:100040000C94222E0C943A090C9416310C944831DD
:100050000C943A090C943A090C943A090C943A0914
:100060000C943A090C943A09A31EB91EA71EAB1EA4
:10007000BB1EC51EBF1EBF1EC11E92208E20892022
:100080008B2090209820942094209620B920BB208B
:10009000B220B420C020C920C220C220C62004251E
:1000A0000A2507251225152518251B251E25C325DC
:1000B000A925A625B425B725BA25BD25C825766F5F
:1000C0006C756D652E646F776E00766F6C756D65FF
:1000D0002E7570006D7963726F66742E73746F7015
:1000E00000436F6D6D616E643A20004D7963726FED
:1000F0006674204D61726B20312076312E342E32A1
:10010000202D20436F6E6E656374656400000000EF
:1001100000000000000000070100000000000000D7
:1001200000030000000300000000000A000F010AA5
:10013000000F010A000000000000000000000003A2
:10014000010B0004000A0109010A00050109010A66
:10015000010000030000000000000000000E00018C
:100160000100000000000001010E0000000000007E
:100170000005000200050000000000040004000F5C
:100180000104000400000108000000000000000855
:10019000000800080000000000000100000000004E
:1001A00000000000010C000600010000000E070125
:1001B0000801080E070000040002000F0F000000F5
:1001C00000020E010901090E0800000204010901E4
:1001D000090E0700000F0100010C0F0E0100000FB7
:1001E0000901090109010600000E070109010902C0
:1001F00006000001000100090F070000000E0601C3
:100200000901090E0600000E04010901090E07008C
:10021000000A00000000000000000000010A0000C9
:10022000000000000004000A000101000000000AB4
:10023000000A000A000000000001010A000400009A
:10024000000000020001000901060000000E00018C
:10025000000D0005010F000E01050005000E010054
:10026000000F0105010A00000000000E000101015D
:10027000010A0000000F0101010E00000000000F44
:100280000105010101000000000F0105000500004B
:100290000000000E00010109010A0000000F010426
:1002A0000004000F01000001010F01010100000026
:1002B00000090001010F00000000000F0104000A06
:1002C00000010100000F0100010001000000000F0B
:1002D000010200040002000F010F010200040008E7
:1002E000000F010E00010101010E0000000F0105C9
:1002F000000200000000000E0001010101090006DB
:10030000010F0105000A01000000000201050105BE
:10031000010900000001000F010100000000000FB2
:1003200000000100010F00000003000C0000010CA0
:100330000003000F0000010C0000010F000B01047E
:10034000000B010000000003000C0103000000008E
:1003500000090105010501030100000F0101010071
:100360000000000000030003000000000000000186
:10037000010F010000000000000200010002000067
:10038000000000000100010001000000000000006A
:100390000000000000000007010000000000000055
:1003A00000030000000300000000000A000F010A23
:1003B000000F010A00000000000000000000000320
:1003C000010B0004000A0109010A00050109010AE4
:1003D000010000030000000000000000000E00010A
:1003E0000100000000000001010E000000000000FC
:1003F0000005000200050000000000040004000FDA
:1004000001040004000001080000000000000004D6
:1004100000040004000000000000010000000000D3
:1004200000000000010C000600010000000E0001A9
:10043000010E000000000002010F01000100000099
:100440000002010901050102010000050105010A80
:1004500000000000000C000A000F01080000000767
:100460000105010D00000000000E00050105010856
:1004700000000001000D010500030000000A000556
:100480000105010A0000000200050005010E000040
:10049000000A00000000000000000000010A000047
:1004A000000000000004000A000000000000000A34
:1004B000000A000A00000000000A0004000000001A
:1004C000000000020001000901060000000E00010A
:1004D000000D0005010F000E01050005000E0100D2
:1004E000000F0105010A00000000000E00010101DB
:1004F000010A0000000F0101010E00000000000FC2
:100500000105010101000000000F010500050000C8
:100510000000000E00010109010A0000000F0104A3
:100520000004000F01000001010F010101000000A3
:1005300000090001010F00000000000F0104000A83
:1005400000010100000F0100010001000000000F88
:10055000010200040002000F010F01020004000864
:10056000000F010E00010101010E0000000F010546
:10057000000200000000000E000101010109000658
:10058000010F0105000A010000000002010501053C
:10059000010900000001000F010100000000000F30
:1005A00000000100010F00000003000C0000010C1E
:1005B0000003000F0000010C0000010F000B0104FC
:1005C000000B010000000003000C0103000000000C
:1005D00000090105010501030100000F01010100EF
:1005E0000000000000010006000C000001000001F6
:1005F000010F0100000000000002000100020000E5
:1006000000000000010001000100000000000000E7
:1006100000000000000000000000000000000108D1
:100620000208020804040404080408040804080476
:10063000080408040408040802080200010000007D
:1006400000000000000000000000000000000000AA
:10065000000000000000000000000000000000009A
:100660000000000000000000020005080808080063
:100670000500020000000000000000000000000073
:10068000000000000000000000000000000000006A
:10069000000000000000000000000000000000005A
:1006A00000000000000007080808080808080808FB
:1006B000080808000700000000000000000000001B
:1006C000000000000000000000000000000000002A
:1006D000000000000000000000000000000000001A
:1006E00000000200020005000500090009000900E1
:1006F00009000500050002000200000000000000E3
:1007000000000000000000000000000000000000E9
:1007100000000000000000000200020002000200D1
:1007200002000200020002000200020002000200B9
:1007300002000200020002000200020002000200A9
:1007400002000200000000000000000000000000A5
:100750000000000000000000000000000000000099
:10076000000000000200050005000500050005006E
:100770000500050005000200000000000000000068
:100780000000000000000000000000000000000069
:100790000000000000000000000000000000000059
:1007A000000000000000000002000200050005003B
:1007B0000200020000000000000000000000000035
:1007C0000000000000000000000000000000000029
:1007D0000008010003000200020002000200020003
:1007E0000200020000000000000000000000000005
:1007F00000000000000000000000000000000000F9
:1008000000000000000000000000000000000000E8
:1008100000000000030002000200020002000200CB
:1008200002000200020002000000000000000000C0
:1008300000000000000000000000000000000000B8
:1008400000000000000000000000000000000000A8
:100850000000000000000000020002000200020090
:10086000020002000200020002000200020000007A
:100870000000000000000000000000000000000078
:100880000000000000000000000000000000000068
:100890000000000000000000000000000000000058
:1008A000000000000200020002000200020002003C
:1008B0000200020002000200000000000000000030
:1008C0000000000000000000000000000000000028
:1008D0000000000000000000000000000000000018
:1008E0000000000000000000000000000000020006
:1008F00002000200020002000200020002000200E8
:1009000002000200000000000000000000000000E3
:1009100000000000000000000000000000000000D7
:1009200000000000000000000000000000000000C7
:1009300000000000020002000200020002000200AB
:10094000020002000200030000000000000000009E
:100950000000000000000000000000000000000097
:100960000000000000000000000000000000000087
:10097000000000000000000002000200020002006F
:100980000200020002000308010000000000000055
:100990000000010003000200020002000200020049
:1009A0000200020002000200020002000200020037
:1009B0000200020002000200020002000200020027
:1009C000020002000200030001000000000000001D
:1009D0000000010003000200020002000200020009
:1009E00002000200020002000200070005000500EC
:1009F00007000200020002000200020002000200E2
:100A000002000200020003000100000000000000DC
:100A100000000100030002000200020002000200C8
:100A200002000200070005000500050005000500A2
:100A30000500050005000700020002000200020098
:100A4000020002000200030001000000000000009C
:100A50000000010003000200020002000200020088
:100A60000200020007080D0808080808080808081E
:100A7000080808080D00070002000200020002003A
:100A8000020002000200030001000000000000005C
:100A9000000001000300020002000100010002004A
:100AA0000400040002000100010002000400040030
:100AB0000200010001000200040004000200010025
:100AC000010002000200030001000000000000001D
:100AD000000001000300020002000200010001000A
:100AE00002000400040002000100010002000400F2
:100AF00004000200010001000200040004000200E2
:100B000001000200020003000100000000000000DC
:100B100000000100030002000200040002000100C6
:100B200001000200040004000200010001000200B4
:100B3000040004000200010001000200040004009F
:100B4000020002000200030001000000000000009B
:100B50000000010003000200020004000400020083
:100B60000100010002000400040002000100010075
:100B70000200040004000200010001000200040061
:100B80000400020002000300010000000000000059
:100B90000000010003000200020002000400040043
:100BA0000200010001000200040004000200010034
:100BB0000100020004000400020001000100020024
:100BC0000400020002000300010000000000000019
:100BD0000000010003000200020001000200040006
:100BE00004000200010001000200040004000200F1
:100BF00001000100020004000400020001000100E5
:100C00000200020002000300010000000075706491
:100C100061746500756E69742E666163746F7279B4
:100C20002D726573657400756E69742E64697361E5
:100C3000626C652D73736800756E69742E656E61E4
:100C4000626C652D737368006D7963726F66742EC4
:100C50006D61726B312E64656D6F00756E69742EF7
:100C600073687574646F776E00756E69742E736542
:100C7000747769666900756E69742E7265626F6F4C
:100C800074000000000000000000000007010000E8
:100C9000000000000000030000000300000000004E
:100CA0000A000F010A000F010A0000000000000006
:100CB0000000000003010B0004000A0109010A0002
:100CC000050109010A010000030000000000000006
:100CD00000000E00010100000000000001010E00F4
:100CE00000000000000005000200050000000000F8
:100CF000040004000F0104000400000108000000CB
:100D000000000000080008000800000000000001CA
:100D1000000000000000000000010C0006000100BF
:100D200000000E07010801080E0700000400020081
:100D30000F0F00000000020E010901090E0800005B
:100D40000204010901090E0700000F0100010C0F48
:100D50000E0100000F0901090109010600000E073C
:100D6000010901090206000001000100090F070046
:100D700000000E06010901090E0600000E0401091B
:100D800001090E0700000A0000000000000000003A
:100D900000010A0000000000000004000A00010138
:100DA000000000000A000A000A0000000000010123
:100DB0000A00040000000000020001000901060012
:100DC00000000E0001000D0005010F000E010500DE
:100DD00005000E0100000F0105010A0000000000DF
:100DE0000E00010101010A0000000F0101010E00C7
:100DF000000000000F0105010101000000000F01CB
:100E000005000500000000000E00010109010A00B4
:100E100000000F01040004000F01000001010F0198
:100E2000010100000000090001010F0000000000A6
:100E30000F0104000A00010100000F010001000180
:100E4000000000000F010200040002000F010F016A
:100E50000200040008000F010E00010101010E0054
:100E600000000F0105000200000000000E0001015B
:100E70000101090006010F0105000A010000000040
:100E80000201050105010900000001000F01010038
:100E9000000000000F00000100010F00000003002F
:100EA0000C0000010C0003000F0000010C00000109
:100EB0000F000B0104000B010000000003000C01F7
:100EC0000300000000000901050105010301000005
:100ED0000F010101000000000000030003000000FA
:100EE0000000000001010F010000000000000200EE
:100EF00001000200000000000001000100010000EC
:100F000000000000000000000000000007010000D9
:100F100000000000000003000000030000000000CB
:100F20000A000F010A000F010A0000000000000083
:100F30000000000003010B0004000A0109010A007F
:100F4000050109010A010000030000000000000083
:100F500000000E00010100000000000001010E0071
:100F60000000000000000500020005000000000075
:100F7000040004000F010400040000010800000048
:100F80000000000004000400040000000000000154
:100F9000000000000000000000010C00060001003D
:100FA00000000E0001010E000000000002010F0110
:100FB000000100000000020109010501020100001A
:100FC000050105010A00000000000C000A000F01E5
:100FD00008000000070105010D00000000000E00E0
:100FE000050105010800000001000D0105000300D6
:100FF00000000A00050105010A00000002000500CA
:1010000005010E0000000A000000000000000000C2
:1010100000010A0000000000000004000A000000B7
:10102000000000000A000A000A00000000000A0098
:101030000400000000000000020001000901060099
:1010400000000E0001000D0005010F000E0105005B
:1010500005000E0100000F0105010A00000000005C
:101060000E00010101010A0000000F0101010E0044
:10107000000000000F0105010101000000000F0148
:1010800005000500000000000E00010109010A0032
:1010900000000F01040004000F01000001010F0116
:1010A000010100000000090001010F000000000024
:1010B0000F0104000A00010100000F0100010001FE
:1010C000000000000F010200040002000F010F01E8
:1010D0000200040008000F010E00010101010E00D2
:1010E00000000F0105000200000000000E000101D9
:1010F0000101090006010F0105000A0100000000BE
:101100000201050105010900000001000F010100B5
:10111000000000000F00000100010F0000000300AC
:101120000C0000010C0003000F0000010C00000186
:101130000F000B0104000B010000000003000C0174
:101140000300000000000901050105010301000082
:101150000F010101000000000000010006000C006A
:101160000001000001010F0100000000000002006A
:101170000100020000000000000100010001000069
:10118000000073797374656D2E746573742E656ECB
:1011900064006D69632E746573740073797374658C
:1011A0006D2E746573742E626567696E004D796388
:1011B000726F6674204D61726B20312076312E344F
:1011C0002E320000000008000201000003040700A6
:1011D000000000000000000102040810204080010F
:1011E000020408102001020408102004040404046E
:1011F00004040402020202020203030303030300C5
:10120000000000230026002900000000002500281F
:10121000002B0000000000240027002A00004009E5
:1012200078319B0911241FBECFEFD8E0DEBFCDBFC0
:1012300013E0A0E0B1E0E6EEF7E702C005900D9202
:10124000AA38B107D9F725E0AAE8B3E001C01D929A
:10125000A23AB207E1F712E1C2E2D2E104C022975A
:10126000FE010E94BF38CE31D107C9F70E94653612
:101270000C94E63B0C9400008EE894E00C94172448
:10128000CF92DF92EF92FF920F931F9364E08AE96F
:1012900094E00E944F0D22E04FE06EE08EE894E073
:1012A0000E94AA2322E530E043E068E170E08FE489
:1012B00094E00E94FF1A04E010E029E030E048E0EA
:1012C00050E067E070E083E194E00E94250E82E048
:1012D000C82ED12C9FE0E92EF12C0EE010E029E081
:1012E00030E048E050E067E070E089EC93E00E9475
:1012F000372483EC93E00E9499268BEB93E00E94C5
:10130000D12883EB93E00E9440296AE974E089EADE
:1013100093E00E94A42C8FE993E00E94372D63ECA8
:1013200073E085E993E01F910F91FF90EF90DF90BC
:10133000CF900C940D2ECF93DF93CEE1D1E0D093DC
:101340009603C093950387E993E00E941B33D093E3
:10135000A003C0939F0381EA93E00E941B33D093C4
:10136000AA03C093A9038BEA93E00E941B33D09396
:10137000B403C093B30385EB93E00E941B33D09377
:10138000BC03C093BB038DEB93E00E941B338DE243
:1013900094E00E941B3380E594E0DF91CF910C94A0
:1013A000432126E040E855E260E070E081E095E00E
:1013B0000E94B43081E095E00E942D306BEE70E029
:1013C00081E095E00C942E320E94D10983EB93E0EA
:1013D0000E944E2989EA93E00E94B92CE1E8F0E0EE
:1013E00080E180831092800021E02093A20480E4B9
:1013F0009FE19093A4048093A3049093870080932B
:10140000860081E180838CE399E0909319018093B9
:10141000180120936F000895EF92FF920F931F938E
:10142000CF93DF9300D000D000D0CDB7DEB781E0FE
:1014300095E00E94D12F18161906C4F54AE061E024
:1014400075E0CE0101960E94F33281E095E00E94A2
:101450002D3061EE70E081E095E00E94F931BE012F
:101460006F5F7F4F81E095E00E94403206E011E01F
:10147000F801E190F1908F01FBEBEF16F3E0FF062E
:1014800031F02FE9E21623E0F20609F015C189ECEC
:1014900093E00E945E24882309F40EC181E00031AC
:1014A000180731F7CE0101960E941B33FF24F394F5
:1014B00081E095E00E94D12F181619060CF465C141
:1014C0008EE894E00E940E2406974CF080919203DF
:1014D000811125C0F09292031092930320C08EE8F0
:1014E00094E00E941224811122C080919203811104
:1014F000EDC01DC00E946C2E00918E0310918F03D1
:101500002091900330919103601B710B820B930B20
:10151000663071058105910550F01092920310928A
:101520008E0310928F03109290031092910380917A
:101530009203882369F18EE894E00E940E24181625
:1015400019060CF0DBC08EE894E00E940E240A9786
:101550000CF0D4C0109293038EE894E00E940E2405
:10156000803D97401CF1109294030E946C2E609372
:101570008A0370938B0380938C0390938D038FE485
:1015800094E00E946A1C89EC93E00E947C250EC0C6
:1015900080919403882351F0109294031092930346
:1015A00064ED70E081E095E00E942E3289EC93E0DA
:1015B0000E946E24882381F00AE914E023E134E0DC
:1015C0004FE454E06EE874E083EC93E00E946027FF
:1015D00089EC93E00E9471248EE894E00E94DD2360
:1015E0008C0189EC93E00E945E248823E1F10230B3
:1015F0001105C9F40E946C2E00918A0310918B038F
:1016000020918C0330918D03601B710B820B930B27
:10161000693873418105910508F44ACF89EC93E05C
:101620000E94612445CF0E946C2E60938A037093C0
:101630008B0380938C0390938D0389EC93E00E943D
:101640008D24892B09F494C089EC93E00E948D24A9
:10165000029709F48DC089EC93E00E948D240397D2
:1016600009F069C085C00130110519F46AEC70E019
:1016700004C0012B31F46EEB70E081E095E00E9434
:101680002E328FE494E00E94E02083E194E00E94F7
:101690004B128091290490912A04892B09F408CFD8
:1016A0008091650490916604069709F001CF8FE45C
:1016B00094E00E945E1FFCCEBE016F5F7F4FC701AA
:1016C0000E94EF28882309F4E9CEECCE80918E03A6
:1016D00090918F03A0919003B0919103892B8A2B55
:1016E0008B2B09F007CF0E946C2E60938E037093B2
:1016F0008F03809390039093910319CF8EE894E029
:101700000E940E240A970CF427CF80919303811135
:1017100023CFF092930389EC93E00E945E24882308
:1017200039F01092940389EC93E00E948C2514CF39
:10173000F092940311CF89EC93E00E948D240197DD
:1017400009F0B6CE0130110511F461E004C0012B9F
:1017500009F0AECE60E08FE494E00E94A21C89EC18
:1017600093E00E94012689EC93E00E94E324A0CE3E
:101770000130110511F460E003C0012BA1F761E015
:1017800089EC93E00E947424EECF26960FB6F8946D
:10179000DEBF0FBECDBFDF91CF911F910F91FF90A4
:1017A000EF900895EF920F931F93CF93DF93EC0187
:1017B000862F688349832A83EB821D821C821F82C5
:1017C0001E8208871A8619861C861B8691E09D87D3
:1017D0009E87E11002C012E001C010E0612F0E945C
:1017E000392F612F89810E94392F612F8A810E94B0
:1017F000392F88810E94A82F2B8130E08217930710
:1018000021F483E090E09F838E8389810E94A82F3A
:101810002B8130E08217930731F48E819F8121E084
:1018200082279F838E83DF91CF911F910F91EF903D
:101830000895CF92DF92EF92FF920F931F93CF9371
:10184000DF93EC010E946C2E6B017C018E85882356
:1018500059F089859A8502979A87898789859A851B
:1018600097FF02C01A86198688810E94A82F2B81B3
:1018700030E08217930711F010E001C013E0898176
:101880000E94A82F2B8130E08217930711F481E08A
:1018900018272E813F81211B20FF14C0812F9927FB
:1018A00087FD90959F838E838C819D812270332745
:1018B00027FD309521503109820F931F9D838C8322
:1018C00081E001C080E09E85992361F0882351F07A
:1018D00089859A85883E9B4028F489859A85499612
:1018E0009A8789878A81882309F470C040919E0471
:1018F00050919F046091A0047091A104970186010A
:10190000041B150B260B370B0A3011052105310579
:1019100008F45CC0C0929E04D0929F04E092A004A0
:10192000F092A1040E94A82F2B8130E08217930728
:1019300081F480919C0490919D04019690939D0464
:1019400080939C04853F914020F083E090E09C8749
:101950008B878A810E94A82F2B8131E0232730E0DA
:101960008217930731F580919C0490919D04892BF7
:10197000E1F08B859C85039719F484E090E008C022
:1019800080919B04823048F08C3378F486E090E0BC
:101990009C878B8710929B0408C08D85882311F04B
:1019A0008CE301C081E080939B0410929D0410920F
:1019B0009C0480919B04882349F0825080939B046F
:1019C000811104C085E090E09C878B87DF91CF91E7
:1019D0001F910F91FF90EF90DF90CF900895FC0141
:1019E000F894248135818085823021F4C901817089
:1019F000992705C0843031F4C901837099279583F4
:101A0000848302C01582148278948085843029F4FE
:101A1000359527953595279504C0823011F4359575
:101A200027958685882329F081859285892F992796
:101A300002C080E090E037FF03C080959095089544
:101A4000232B11F00196089580E090E00895089509
:101A50001F920F920FB60F9211242F933F934F9323
:101A60005F936F937F938F939F93AF93BF93EF9306
:101A7000FF93E0911801F09119010995FF91EF9101
:101A8000BF91AF919F918F917F916F915F914F9196
:101A90003F912F910F900FBE0F901F901895FC0152
:101AA00060830895CF93DF93EC0161E08DE00E94A5
:101AB000392F61E088810E94392F60E08DE00E941B
:101AC000722F61E08881DF91CF910C94722F60E0DA
:101AD000FC0180810C94722F61E0FC0180810C94E8
:101AE000722F4F925F926F927F928F929F92AF92DE
:101AF000BF92CF92DF92EF92FF920F931F932A0132
:101B00003B0148015901C12CD12C7601C414D504E4
:101B1000E604F704B4F461E08DE00E94722FC50181
:101B2000B4010E949B2E60E08DE00E94722FC501DF
:101B3000B4010E949B2E8FEFC81AD80AE80AF80A4F
:101B4000E5CF1F910F91FF90EF90DF90CF90BF9066
:101B5000AF909F908F907F906F905F904F9008957F
:101B60000F931F9308EE13E020E030E041E050E0D7
:101B700060E070E00E94710D0C9400001F910F91C5
:101B80000895CF92DF92EF920F93062FBA01C12CE6
:101B9000D12CE12C28E048E00E94DF150F91EF9056
:101BA000DF90CF9008950C9442198F92AF92BF921C
:101BB000CF92EF92FF920F931F93211114C05527DC
:101BC00047FD5095FB016081718188248394FAE080
:101BD000AF2EB12CA5E0CA2EB0E6EB2EB1E0FB2E65
:101BE0000DE813E015C02130B9F4552747FD509595
:101BF000FB0160817181882483942AE0A22EB12C9C
:101C000038E0C32EE0E2EE2EE1E0FE2E0DE011E022
:101C100020E030E00E94F7141F910F91FF90EF90A9
:101C2000CF90BF90AF908F900895CF93DF93EC014A
:101C30001F8A1E8A19AA18AA1BAA1AAA0E94471844
:101C4000CE01DF91CF910C944219CF92DF92EF92A7
:101C5000FF920F931F93CF93DF9300D000D0CDB7A7
:101C6000DEB76C017B016BE773E04A962B833C8304
:101C700049835A830E94893386E1F60111928A953D
:101C8000E9F72B813C8149815A81B701C6010E9445
:101C90003E1AC6010E94150EF60115AB04AB178A59
:101CA000168A13AE12AE0F900F900F900F90DF9127
:101CB000CF911F910F91FF90EF90DF90CF900895FB
:101CC00043305105B9F420E1629FB001112420E0B6
:101CD00030E06353784FFB01E20FF31FE491DC0126
:101CE000A20FB31F9096EC932F5F3F4F2031310529
:101CF00091F7089542305105B9F420E1629FB00197
:101D0000112420E030E06357754FFB01E20FF31F11
:101D1000E491DC01A20FB31F9096EC932F5F3F4F2D
:101D20002031310591F7089541305105B9F420E192
:101D3000629FB001112420E030E06357764FFB0131
:101D4000E20FF31FE491DC01A20FB31F9096EC9316
:101D50002F5F3F4F2031310591F7089545305105F0
:101D6000B1F420E1629FB001112420E030E0635F14
:101D7000794FFB01E20FF31FE491DC01A20FB31FC7
:101D80009096EC932F5F3F4F2031310591F70895E6
:101D90007F928F929F92AF92BF92CF92DF92EF92FB
:101DA000FF920F931F93CF93DF93EC01762E5A018E
:101DB0000E944718F12C10E04E0180E2880E911C21
:101DC0008CA99DA9212F30E028173907B4F4612F81
:101DD000789E600D1124A501CE010E94600EC12CD9
:101DE000D12CE12C0F2D28E048E0B401CE010E9457
:101DF000DF151F5F88E0F80EE3CFCE01DF91CF91B2
:101E00001F910F91FF90EF90DF90CF90BF90AF9018
:101E10009F908F907F900C94421921E030E0FC015C
:101E2000378B268B41E050E060E00C94C80E0F9396
:101E30001F93CF93DF93EC018E899F89019759F00F
:101E400081E090E09F8B8E8B188E1EAA1FAA18AE81
:101E500019AE86E0898F0E946C2E0EA91FA928ADAD
:101E600039AD0617170728073907D0F44E895F895F
:101E7000688DCE010E94C80E888D833010F48F5F6C
:101E800001C08150888F0E946C2E6A5B7F4F8F4FFC
:101E90009F4F6EAB7FAB88AF99AF898D8150898F93
:101EA000898D81110BC081E090E09F8B8E8B188E05
:101EB0001EAA1FAA18AE19AE86E0898FDF91CF91B6
:101EC0001F910F9108950F931F93CF93DF93EC0110
:101ED0008E899F89029749F082E090E09F8B8E8BDC
:101EE000188E1EAA1FAA18AE19AE0E946C2E0EA93B
:101EF0001FA928AD39AD0617170728073907B8F409
:101F00004E895F89688DCE010E94C80E888D85300C
:101F100018F48F5F888F01C0188E0E946C2E6A5B48
:101F20007F4F8F4F9F4F6EAB7FAB88AF99AFDF91E5
:101F3000CF911F910F9108950F931F93CF93DF932C
:101F4000EC018E899F89039759F083E090E09F8B85
:101F50008E8B188E1EAA1FAA18AE19AE8EE0898F1E
:101F60000E946C2E0EA91FA928AD39AD06171707C0
:101F70002807390718F5888D4E895F89873050F01A
:101F800061E0680F96E0981B892F92E0899F600DB1
:101F9000112401C0682FCE010E94C80E888D8F5F6A
:101FA000888F0E946C2E68587F4F8F4F9F4F6EAB6B
:101FB0007FAB88AF99AF898D8150898F898D8111D1
:101FC0000BC083E090E09F8B8E8B188E1EAA1FAAF9
:101FD00018AE19AE8EE0898FDF91CF911F910F91CE
:101FE00008953F924F925F926F927F928F929F924D
:101FF000AF92BF92CF92DF92EF92FF920F931F9317
:10200000CF93DF93CDB7DEB7CD55D1090FB6F89496
:10201000DEBF0FBECDBF4C015B01DB010D90002088
:10202000E9F71197A61BB70BAD0141505109FB0110
:10203000E40FF51F80818432E1F485EA94E0C35A0D
:10204000DF4F0FB6F894DEBF0FBECDBFDF91CF914B
:102050001F910F91FF90EF90DF90CF90BF90AF90C6
:102060009F908F907F906F905F904F903F900C94D7
:10207000FA3AFB018081843229F58091A5048823F6
:1020800009F42EC1E5EAF4E001900020E9F7319768
:10209000E55AF440EA0FFB1FEB35F10580F465EAE1
:1020A00074E0CE0101960E94273BB5016F5F7F4F20
:1020B000CE0101960E941C3B1092A50409C010920B
:1020C000A5040EC14CE350E0CE0101960E943C3BBA
:1020D00089819E012F5F3F4F5901883709F58A8119
:1020E0008D33F1F432E000E0832F90E0F501E80F4A
:1020F000F91F20813F5F2C32A9F0F50101900020EB
:10210000E9F73197EA19FB098E179F0758F4802FDA
:10211000880F082F000F000F080F0053020FE4CFA5
:1021200030E000E0832F90E0F501E80FF91F2081F7
:10213000293721F5FE01E80FF91F82818D33F1F473
:102140003E5F10E0832F90E0F501E80FF91F20813A
:102150003F5F2C32A1F0F50101900020E9F73197A3
:10216000EA19FB098E179F0750F4812F880F182F4B
:10217000110F110F180F1053120FE4CF10E0832F1F
:1021800090E0F501E80FF91F20812336A1F4FE014C
:10219000E80FF91F2281203571F4FE01E80FF91FC5
:1021A00083818D3341F483E0830FF501E80FF11D46
:1021B00020813B5F01C021E3832F90E0F501E80F10
:1021C000F91F4081433601F5FE01E80FF91F4281F6
:1021D0004435D1F4FE01E80FF91F83818D33A1F45A
:1021E0003D5F832F90E0F501E80FF91F40813F5FCD
:1021F0004C3251F0F50101900020E9F73197EA19CE
:10220000FB098E179F0768F3832F90E0F50101907B
:102210000020E9F73197EA19FB09AC014F5F5F4FE6
:102220004E175F070CF05CC0D501A80FB91FFC90DA
:102230008FEBF80E82E0582E530E3F5FD501A30FAF
:10224000B11D4C90E519F1098F2D90E0880F991F71
:10225000E817F90708F444C0213319F4C4010E94B7
:102260004718612C712CEFEB4E0EFF2089F1F50120
:1022700001900020E9F73197EA19FB09852D90E0DC
:102280008E179F0728F5F501E80FF91F808181342B
:10229000ECF0815460FE14C06E968FAF6E973324BD
:1022A0003394300EC12CD12CE12E242D41E0BE01FF
:1022B000645A7F4FC4010E94DF15FA94032D03C0B6
:1022C0006D968FAF6D97FFEF6F1A7F0A5394CDCF46
:1022D00086E090E0F401978B868BC4010E9442193E
:1022E000C35ADF4F0FB6F894DEBF0FBECDBFDF91EC
:1022F000CF911F910F91FF90EF90DF90CF90BF9003
:10230000AF909F908F907F906F905F904F903F9095
:102310000895CF93DF93EC01CB012E893F892D7F68
:1023200024303105F9F025E030E03F8B2E8B60E062
:1023300070E00E949034682F772767FD7095605396
:10234000710977FD06C0673071052CF066E070E01A
:1023500002C060E070E045E050E0CE01DF91CF9137
:102360000C94C80EDF91CF9108956F927F928F9257
:10237000AF92BF92CF92EF92FF920F931F93CF93A2
:10238000DF93EC010E946C2E0EA91FA928AD39AD78
:10239000061717072807390708F04CC048EE53E026
:1023A00060E0CE010E94721ACE010E94471850E2EE
:1023B000652E712C8AA99BA9A301481B590B6A8D14
:1023C0007B8D88248394EAE0AE2EB12CF5E0CF2EED
:1023D000A0E6EA2EA1E0FA2E0DE813E022E030E0BC
:1023E000CE010E94F714CE010E94421968A979A972
:1023F0006132710544F08AA99BA90196605E7F4F06
:102400000E9468380BC0C301861B970B97FD01968D
:102410009595879591958195910980969BAB8AAB0F
:102420000E946C2E6A567F4F8F4F9F4F6EAB7FABD3
:1024300088AF99AFDF91CF911F910F91FF90EF90EF
:10244000CF90BF90AF908F907F906F9008950F9333
:10245000CF93DF93EC014A960E94BF336A8D7B8D48
:1024600001E025E040E651E082EE94E00E94A215F2
:1024700099AB88AB1BAA1AAA84E090E09F8B8E8B45
:10248000188E1EAA1FAA18AE19AECE01DF91CF91E9
:102490000F910C94B511CF93DF93EC018E899F8936
:1024A00083309105A1F04CF48130910561F00297E1
:1024B000B1F4CE010E94630F19C08430910559F028
:1024C0000797A4F00CC0CE010E940D0F0FC0CE01E3
:1024D0000E949C0F0BC0CE010E94B51107C08AADAF
:1024E0009BAD892B19F0CE010E94150E8E899F8914
:1024F0009BAF8AAFDF91CF9108952F923F924F9279
:102500005F926F927F928F929F92AF92BF92CF9283
:10251000DF92EF92FF920F931F93CF93DF93CDB78C
:10252000DEB769970FB6F894DEBF0FBECDBF1C01B2
:1025300079876887488B922E1E2DDB86CA86422EAD
:10254000552447FC5094C2018E0D911DE7FC9A95CD
:1025500097FD34C2842F992787FD9095800F911D98
:1025600007FD9A9597FD2AC219300CF027C2013257
:102570000CF024C22E2D2370422F552747FD509575
:102580005F834E838FE090E0582F01C0550F2A954E
:10259000EAF7598BA4E0B0E0EE81FF81AE1BBF0BE0
:1025A000BB83AA830A8002C0959587950A94E2F7B7
:1025B000F82FFF70FF87F095FF70FE87612C712C5C
:1025C00092012C5F3F4F3B8B2A8B33E03E0D3C8BBF
:1025D000C92CDD24C7FCD094ED2CFD2C4E815F81ED
:1025E000440D551D5E8B4D8BA8896A160CF0E6C113
:1025F000802F860D803208F0DDC1A82FAA0FBB0BFB
:10260000BD83AC831D861C86B12CA12C8C84880CC8
:10261000880C882D992787FD9095BB2019F02A8971
:102620003B8901C09201821793070CF0C3C1B82DFA
:10263000B10FBF8B2C89280D2B3008F0B5C12B2F83
:10264000237009F069C092012B1B3109B7FD339546
:10265000243031056CF48419950904962FE030E09C
:1026600002C0359527958A95E2F72F70298302C01D
:102670003FE03983C701B6010E94253720E030E0F2
:1026800040E85EE30E94F1370E947736D101179649
:102690002C911797E2E02E02A00DB11D11241C967B
:1026A0002F8927FD2D5F259525954C815D81420F52
:1026B000511D27FD5A959A014D915C91420F531F70
:1026C000488F598F0E94F236669EF001679EF00D8A
:1026D000769EF00D1124882D488D598D87FC8D5FD5
:1026E00085958595E80FF11D87FDFA958A859B856F
:1026F000E80FF91FA885B985EA0FFB1FE491DA01FD
:102700008C918F70998190958923B981EB238E2BC1
:102710008061FA01808348C1B11072C0FF891F1621
:102720000CF018C192012F1B3109F7FD33952430AD
:1027300031056CF4841995090496AFE0B0E002C04D
:10274000B595A7958A95E2F7CD018F7001C08FE00E
:10275000B988B822C701B6010E94253720E030E0D1
:1027600040E85EE30E94F1370E947736F10127814D
:1027700032E02302E00DF11D11242F8925952595C6
:102780004C815D81420F511D27FD5A959A01448568
:102790005585420F531F488F598F0E94F236669E0F
:1027A000F001679EF00D769EF00D1124882D488D66
:1027B000598D87FE02C083E0880D85958595E80FC9
:1027C000F11D87FDFA958A859B85E80FF91FA8857D
:1027D000B985EA0FFB1FE491DA019C919F708B2D64
:1027E000809598239061FF27E7FDF0950E8002C049
:1027F000EE0FFF1F0A94E2F7EB219E2B9C93AAC0D9
:10280000BB24A7FCB094891434F1F101878122E044
:102810008202E00DF11D11243C968F8987FD8D5FAA
:10282000859585954C815D81480F511D87FD5A9591
:102830000190F081E02DE40FF51F0A8002C0B594ED
:10284000A7940A94E2F78F858A21806190815E8542
:102850009523892B7EC09201AF892A1B3109A7FDE0
:102860003395243031057CF4ED89FE898E1B9F0B56
:1028700004962FE030E002C0359527958A95E2F75F
:102880002F70298302C03FE03983C701B6010E943F
:10289000253720E030E040E85EE30E94F1370E94F7
:1028A0007736D10117962C911797E2E02E02A00DF2
:1028B000B11D11241C962F8927FD2D5F2595259587
:1028C0004C815D81420F511D27FD5A959A014D9112
:1028D0005C91420F531F488F598F0E94F236669EBB
:1028E000F001679EF00D769EF00D1124882D488D25
:1028F000598D87FE02C083E0880D85958595E80F88
:10290000F11D87FDFA958A859B85E80FF91FA8853B
:10291000B985EA0FFB1FE4910A8002C0B594A79421
:102920000A94E2F789818A218061DA019C919F7083
:10293000298120959223892BFF27E7FDF0950E80B2
:1029400002C0EE0FFF1F0A94E2F7B981EB238E2B32
:10295000FA018083C701B6010E94253720E030E0EC
:1029600040E85EE30E94F1370E9477360E94F2361B
:10297000669E5001679EB00C769EB00C1124882D87
:1029800087FC8D5F85958595F501E80FF11D87FD25
:10299000FA952A853B85E20FF31F48855985E40F98
:1029A000F51FA490BB24B3948C859D8501969D87CB
:1029B0008C872CCE9FEF691A790A16CE69960FB6CE
:1029C000F894DEBF0FBECDBFDF91CF911F910F9165
:1029D000FF90EF90DF90CF90BF90AF909F908F903F
:1029E0007F906F905F904F903F902F9008952F921F
:1029F0003F924F925F926F927F928F929F92AF928F
:102A0000BF92CF92DF92EF92FF920F931F93CF93DB
:102A1000DF93CDB7DEB729970FB6F894DEBF0FBEB0
:102A2000CDBF2C017C836B833A011801FE82ED82BD
:102A3000FC2CB886AF82C9018C0D911DC7FC9A95FC
:102A400097FD67C0283031050CF063C010E0A82C5A
:102A5000BB24A7FCB094922EEB81FC81E10FF11D09
:102A600017FDFA952081222309F453C08FE9820FC4
:102A70008A3110F0205201C02054203418F530E281
:102A8000631671040CF045C0332727FD30958D8106
:102A90009E81820F931F9A838983FC014081C30129
:102AA000840F911D47FD9A958A0D9B1D97FF0CC0C1
:102AB000E981FA8180819501280F311D87FD3A95C2
:102AC000620E731E1F5FC8CF8F819885289F60019B
:102AD000299FD00C389FD00C1124E92C062D2F2DC6
:102AE000B101C2010E947D1230E038150CF7E98176
:102AF000FA810081060D030FC12CD12CE92C2F2D5A
:102B000041E0B101C20139870E947D1239853F5FE2
:102B1000ECCF29960FB6F894DEBF0FBECDBFDF9184
:102B2000CF911F910F91FF90EF90DF90CF90BF90CA
:102B3000AF909F908F907F906F905F904F903F905D
:102B40002F9008950F93CF9320E080E090E0E02F46
:102B5000FF27E7FDF095DB01A20FB11D27FDBA9518
:102B60003C91311107C0801B910907FD9395CF91CE
:102B70000F910895AFE9A30FAA3110F0305201C0B0
:102B80003054C1E0C20F303468F4DA01A30FB11D34
:102B900037FDBA952C91DF01A20FB11D27FDBA9523
:102BA0008A0F9B1F2C2FD7CF643031F067FD06C0F2
:102BB000FC012481621714F4FC01678308952F92AD
:102BC0003F924F925F926F927F928F929F92AF92BD
:102BD000BF92CF92DF92EF92FF920F931F93CF930A
:102BE000DF93CDB7DEB767970FB6F894DEBF0FBEA1
:102BF000CDBF1C01442EF22E0D87EB82622E77246E
:102C000067FC7094C3012E2D8E0D911DE7FC9A95E3
:102C100097FD24C2842F992787FD9095800F911DE1
:102C200007FD9A9597FD1AC229300CF017C20132A0
:102C30000CF014C22370422F552747FD50955F8337
:102C40004E838FE090E0582F01C0550F2A95EAF788
:102C50005F87A4E0B0E0EE81FF81AE1BBF0BBA83BB
:102C6000A983098002C0959587950A94E2F7F82F09
:102C7000FF70FE87F095FF70FC8700E010E0930185
:102C80002C5F3F4F398B288B3E2D3D5F3A8B8F2C2D
:102C9000992487FC9094A92CB92CAB014C0D5D1D97
:102CA000598748878E819F81860D971D9C8B8B8BC2
:102CB00004150CF0D3C18D85800F803208F0CBC194
:102CC000A82FAA0FBB0BBD83AC831B861A86D12C01
:102CD000C12CEA84EE0CEE0C8E2D992787FD909581
:102CE000DD2019F02889398901C0930182179307E3
:102CF0000CF0B1C14B814E0D2A892E0D2B3008F0FE
:102D0000A4C1242F237009F065C09301241B31094D
:102D100047FD3395243031056CF4861997090496E4
:102D2000EFE0F0E002C0F595E7958A95E2F7EF70E5
:102D30005E2E02C09FE0592ED10117968C91F101B1
:102D4000B2E08B02E00DF11D11243C9647FD4D5F72
:102D5000459545958C819D81840F911D47FD9A95E0
:102D600020813181280F391F3F8B2E8BC501B40183
:102D70000E94253720E030E040E85EE30E94F13712
:102D80000E947736AE89BF892C912F70352D3095F2
:102D9000232320612D8B0E94F236069FA001079FFE
:102DA000500D169F500D11243E2D2D89E7FC3D5FDF
:102DB000E32EE594E594E885F985E40FF51FEE0D23
:102DC000F11DE7FCFA9580818521822BEE89FF8930
:102DD00080833BC1D11070C014160CF010C1930158
:102DE000241B310947FD3395243031056CF48619D5
:102DF000970904962FE030E002C0359527958A9513
:102E0000E2F7C9018F7001C08FE0DF84D822D101C1
:102E100017968C91F101B2E08B02E00DF11D1124A7
:102E2000459545958C819D81840F911D47FD9A950F
:102E300024853585280F391F3F8B2E8BC501B401A2
:102E40000E94253720E030E040E85EE30E94F13741
:102E50000E947736AE89BF894C914F702D2D2095F9
:102E6000422340614D8B0E94F236069FF001079F7E
:102E7000F00D169FF00D11248E2D4D89E7FE02C036
:102E800083E08E0D8595859528853985E20FF31FA2
:102E9000E80FF11D87FDFA952081332727FD309536
:102EA0000E8002C0220F331F0A94E2F72D21242B3B
:102EB000AE89BF892C93A3C0DD24C7FCD094EF1446
:102EC00034F1F101878122E08202E00DF11D11242D
:102ED0003C9647FD4D5F459545958C819D81840FBE
:102EE000911D47FD9A950190F081E02DE80FF91FA3
:102EF000098002C0D594C7940A94E2F78E858C218C
:102F0000806190813C859323892B808378C09301D5
:102F1000241B310947FD3395243031057CF4AB89FE
:102F2000BC898A1B9B0B0496EFE0F0E002C0F5958C
:102F3000E7958A95E2F7EF705E2E02C08FE0582E7B
:102F4000D10117968C91F101B2E08B02E00DF11DD9
:102F500011243C9647FD4D5F459545958C819D819B
:102F6000840F911D47FD9A9520813181280F391FCB
:102F70003F8B2E8BC501B4010E94253720E030E045
:102F800040E85EE30E94F1370E947736098002C074
:102F9000D594C7940A94E2F7C5203C2D3061C32E26
:102FA000AE89BF892C912F70352D30952323C22AED
:102FB0000E94F236069FF001079FF00D169FF00D5C
:102FC00011248E2DE7FE02C083E08E0D8595859538
:102FD00028853985E20FF31FE80FF11D87FDFA956B
:102FE0008081992787FD90950E8002C0880F991FD8
:102FF0000A94E2F758225C28AE89BF895C92C50129
:10300000B4010E94253720E030E040E85EE30E94F2
:10301000F1370E9477360E94F236069FA001079F83
:10302000500D169F500D11242E2DE7FC2D5FE22E22
:10303000E594E594E885F985E40FF51FEE0DF11DA3
:10304000E7FCFA95C080DD24D394EA85FB853196B0
:10305000FB87EA873ECE0F5F1F4F2ACE67960FB6DB
:10306000F894DEBF0FBECDBFDF91CF911F910F91BE
:10307000FF90EF90DF90CF90BF90AF909F908F9098
:103080007F906F905F904F903F902F90089520E039
:1030900030E040E1FC01578162E05602E00DF11D95
:1030A00011240484F585E02DE20FF31F40832F5F88
:1030B0003F4F2034310571F70895AF92BF92CF9200
:1030C000DF92EF92FF920F931F93CF93DF938C01C8
:1030D000C42EDD24C7FCD094C6010197C1E0D0E026
:1030E00002C0CC0FDD1F8A95E2F7E12CF12CA62E51
:1030F000BB24A7FCB094FFEFEF1AFF0AC6018E199C
:103100009F0997FD1AC061E0CE018A219B21892B7E
:1031100009F460E0F80186810E94722F000061E0EE
:10312000F80185810E94722F000060E0F80185811E
:103130000E94722FD595C795DECFDF91CF911F9159
:103140000F91FF90EF90DF90CF90BF90AF900895D8
:10315000DF92EF92FF920F931F93CF93DF93EC01D7
:10316000D62E00E010E0E42EFF24E7FCF0940E15CC
:103170001F059CF46D2D61708E810E94722F0000DE
:1031800061E08D810E94722F000060E08D810E94BD
:10319000722FD5940F5F1F4FEACFDF91CF911F9110
:1031A0000F91FF90EF90DF900895CF93DF93EC01A4
:1031B00060E08E810E94722F000061E08D810E948C
:1031C000722F000060E08D81DF91CF910C94722FFF
:1031D000CF93DF93EC0148E00E945D18CE01DF91B0
:1031E000CF910C94D518CF92DF92EF92FF920F936C
:1031F0001F93CF93DF93EC018C01EE24E394F12C29
:10320000C62EDD24C7FCD0948C81992787FD90952C
:1032100098012C1B3D0B281739077CF4F80181918C
:103220008F0161E097012C213D21232B09F060E003
:103230000E94722FEE0CFF1CE7CFDF91CF911F9100
:103240000F91FF90EF90DF90CF9008950F931F9311
:10325000CF93DF93EC018C018C81992787FD9095AA
:1032600098012C1B3D0B281739073CF461E0F8014D
:1032700081918F010E94722FEFCFDF91CF911F912B
:103280000F910895FF920F931F93CF93DF93EC015B
:103290008F819C8189170CF05DC087FD5BC091E038
:1032A000F92E01C0FF0C8A95EAF700E010E080E0FB
:1032B000EF81FF27E7FDF095DE01AE0FBF1F1896E7
:1032C0009C9191110DC03696EE0FFF1FEC0FFD1F64
:1032D0000190F081E02DE00FF11F908194FF23C059
:1032E00081110EC06F2DCE010E94F31843E065E0FE
:1032F000CE010E945D1847E0602FCE010E945D184C
:103300008F81FE0192E08902E00DF11D11240484F9
:10331000F585E02DE00FF11F44E06081CE010E94B1
:10332000A81881E006C0882321F0CE010E9426194A
:1033300080E00F5F1F4F0034110509F0B9CF8823DB
:1033400019F0CE010E9426198F81C80FD11D87FD6B
:10335000DA951886DF91CF911F910F91FF90089514
:10336000CF92DF92EF92FF920F931F93CF93DF9351
:10337000EC016D834E836C017C0100E010E0F2E013
:10338000EF0EF11C8C81992787FD909561E008175D
:103390001907B4F4F60181916F010E94392F80E47E
:1033A00090E00E94DD38F70193878287602FCE017D
:1033B0000E94D415CE010E9447180F5F1F4FDFCF28
:1033C0008D810E94392F61E08E810E94392FCE01BC
:1033D0000E94261980E490E00E94DD389D8B8C8B42
:1033E00084E08F83CE010E9447186FE0CE010E94D7
:1033F000F31843E064E0CE010E945D1860E0CE0166
:103400000E94E81860E2CE010E94E81861E0CE0157
:103410000E94E81863E0CE010E94E8186FEACE012E
:103420000E94E818CE010E94261900E010E0FF2457
:10343000F3942C81822F992787FD909508171907FF
:103440008CF4602FCE010E94D415FE01E00FF11F15
:10345000F086CE010E944718CE010E9442190F5FEC
:103460001F4FE7CF12160CF41F82DF91CF911F91EF
:103470000F91FF90EF90DF90CF900895E62FBA0163
:1034800041E0DC0114964C931497EC93A9010C9441
:10349000B0191F93CF93DF93EC01162F403149F4FD
:1034A0008F819C818917D4F441E001C0440F8A9533
:1034B000EAF7642FCE010E94F31843E064E0CE01E6
:1034C0000E945D186FEF610F606ACE010E94E818DC
:1034D000CE01DF91CF911F910C942619DF91CF91EE
:1034E0001F910895CF92DF92EF92FF921F93CF9397
:1034F000DF93EC018F819C8189170CF078C087FDE8
:1035000076C06130B9F06230A9F1611170C09927BD
:1035100087FD9095FC01EE0FFF1FEC0FFD1F24852A
:1035200035854C895D89558744873D8B2C8BC80F29
:10353000D91F1DC080E090E0EC89FD89E80FF91FDC
:1035400020813F81FE0142E03402E00DF11D112493
:103550000484F585E02DE80FF91F2083019680345F
:10356000910551F78F81C80FD11D87FDDA9581E054
:1035700088873DC0CA0157FD4F966C0165E0D59420
:10358000C7946A95E1F71FE0EE24D7FCE094FE2C87
:1035900040E1612FCE010E94491AC701B6010E9485
:1035A0009B2E1150A9F7CE010E944718CE010E9410
:1035B0004219C701B6010E949B2E48EE53E060E01D
:1035C000CE010E94721ACE010E944219C701B601B3
:1035D0000E949B2E12E040E1612FCE010E94491A09
:1035E000C701B6010E949B2E1F5F1131A1F7DF9129
:1035F000CF911F91FF90EF90DF90CF9008950F93A0
:103600001F93CF93DF93EC018C010F5F1F4FC80115
:103610000E94CF22C8010E946523969587958FABA3
:10362000DF91CF911F910F910895CF92DF92EF928A
:10363000FF920F931F93CF93DF9300D000D0CDB7AD
:10364000DEB78C01E62EF12C6C018FEFC81AD80A78
:10365000C60129833A834B835C830E9465232981B9
:103660003A814B815C81E816F90610F589E090E01B
:10367000F801978B868B84E090E092AB81ABB70129
:10368000C6010E94F722C6010E94DB2161E070E0C2
:1036900080E090E00F900F900F900F90DF91CF910E
:1036A0001F910F91FF90EF90DF90CF900C949B2E85
:1036B0000F900F900F900F90DF91CF911F910F916E
:1036C000FF90EF90DF90CF900895CF92DF92EF922E
:1036D000FF920F931F93CF93DF93EC0185E090E06F
:1036E0009F8B8E8B00E010E0C62ED12C7E018FEFD9
:1036F000E81AF80A8FA990E008171907C0F58BA5FA
:103700009CA5C016D106C0F0029740F42B8D3C8DCD
:103710004D8D5E8DB801C7010E94F7228BA59CA537
:103720008D7F892B09F52B8D3C8D4D8D5E8D8FA95D
:10373000B801680F711D15C0029738F420E030E021
:10374000A901B801C7010E94F7228BA59CA58D7F16
:10375000892B51F48FA9B801680F711D20E030E06A
:10376000A901C7010E94F7220F5F1F4FC3CFCE01EF
:1037700001960E94DB210E946C2E6854744F8F4F7B
:103780009F4F6BA37CA38DA39EA3DF91CF911F912D
:103790000F91FF90EF90DF90CF900895FC0174A7F8
:1037A00063A7642F0C94651B009731F021E002970A
:1037B00009F020E0822F089581E008956F927F92B2
:1037C0008F929F92AF92BF92CF92DF92EF92FF9231
:1037D0000F931F93CF93DF937B0149015A01EC01B3
:1037E0002196CE010E9465238C01C7010E94D41B43
:1037F000811103C0C02EC69401C0C12C602E82E08E
:10380000E816F10408F06694E12CF12CD12CEC14AC
:10381000FD04A0F420E030E0A901B701CE010E9430
:10382000F722CE010E94DB2161E070E080E090E0B1
:103830000E949B2E8FEFE81AF80AE9CFE12CF12CB9
:10384000712CB7016C0D7D1D6615770590F4A501EF
:103850009401CE010E94F722CE010E94DB2161E09B
:1038600070E080E090E00E949B2E8FEFE81AF80A4B
:10387000E8CFE12CF12C1127B701660D771D8FEFF2
:10388000E81AF80A6017710780F420E030E0A90117
:10389000CE010E94F722CE010E94DB2161E070E0A0
:1038A00080E090E00E949B2EE7CFDF91CF911F91A7
:1038B0000F91FF90EF90DF90CF90BF90AF909F90CF
:1038C0008F907F906F9008959A01AB0160E070E057
:1038D0000C94DE1BFC01438D548D658D768D0C940C
:1038E000641CCF93DF93EC01862F642F422F0E943C
:1038F0005C236B8F7C8F8D8F9E8FCE01DF91CF915C
:103900000C946A1C0F931F93CF93DF93EC01688391
:103910006DE07CE081E095E00E942E324AE050E0CC
:10392000FE0161918F0181E095E00E94AE326881D5
:10393000C8010E946923CE01DF91CF911F910F91A1
:103940000C946A1CFC012081662321F02E3150F476
:1039500061E003C0223030F06FEF620F0E94821CE2
:1039600081E0089580E0089529E030E0FC01378B84
:10397000268B24E030E032AB21AB40E050E0BA01CE
:103980000C94641C7F928F929F92AF92BF92CF92C1
:10399000DF92EF92FF920F931F93CF93DF93EC018F
:1039A000662329F02B8D3C8D4D8D5E8D03C020E06C
:1039B00030E0A9012F8F38A349A35AA38E010F5FCE
:1039C0001F4F688D70E0C8010E94F7222F8D38A12B
:1039D00049A15AA1698D70E0C8010E94F7227FA811
:1039E000C72CD12CE12CF12C8F8C98A0A9A0BAA0C7
:1039F000888D6EAD772767FD7095680F711D8827DC
:103A000077FD8095982FA70196010E949E386C0D36
:103A10007D1D8E1D9F1DA70196010E949E38E72DDA
:103A2000F0E0E60FF71FA5019401BF01C8010E9455
:103A3000F7227FA8C72CD12CE12CF12C8F8C98A0D9
:103A4000A9A0BAA0898D6EAD772767FD7095680F24
:103A5000711D882777FD8095982FA70196010E94F8
:103A60009E386C0D7D1D8E1D9F1DA70196010E9425
:103A70009E38E72DF0E0E60FF71FA5019401BF0186
:103A8000C801DF91CF911F910F91FF90EF90DF90D0
:103A9000CF90BF90AF909F908F907F900C94F72223
:103AA000FC0120AD22AF2F5F20AF332727FD3095DB
:103AB00087A990E0281739070CF010AE08950F93EE
:103AC0001F93CF93DF93EC018BA59CA58D7F892B52
:103AD000C1F42B8D3C8D4D8D5E8D68AD772767FDD4
:103AE00070958E010F5F1F4FC8010E94F7226AADCB
:103AF000772767FD709520E030E0A901C8010E949A
:103B0000F7228BA59CA5029730F58E010F5F1F4F02
:103B10002B8D3C8D4D8D5E8D88AD6EAD772767FD0D
:103B20007095680F711D87FD7A95C8010E94F72274
:103B30008AAD6EAD772767FD7095680F711D87FDA3
:103B40007A9520E030E0A901C801DF91CF911F9163
:103B50000F910C94F722DF91CF911F910F9108954F
:103B6000CF93DF93EC018BA59CA58D7F892B61F40E
:103B70002B8D3C8D4D8D5E8D68AD772767FD7095E3
:103B8000CE0101960E94F7228BA59CA5029798F47E
:103B90002B8D3C8D4D8D5E8D88AD6EAD772767FD8D
:103BA0007095680F711D87FD7A95CE010196DF91A2
:103BB000CF910C94F722DF91CF910895CF92DF92AD
:103BC000EF92FF920F931F93CF93DF93EC01C62EDA
:103BD000DD24C7FCD094E42EF12C8C010F5F1F4F25
:103BE0002F8D38A149A15AA1B6016E0D7F1DC801C4
:103BF0000E94F7222F8D38A149A15AA16FA970E028
:103C00006C197D09615071096E0D7F1DC8010E94FC
:103C1000F7222F8D38A149A15AA18FA98695B60107
:103C2000680F711D6E0D7F1DC8010E94F7222F8D38
:103C300038A149A15AA16FA9669570E06C197D0958
:103C4000615071096E0D7F1DC801DF91CF911F91E9
:103C50000F91FF90EF90DF90CF900C94F722CF93CD
:103C6000DF93EC01662329F04B8D5C8D6D8D7E8D8D
:103C700003C040E050E0BA014F8F58A369A37AA374
:103C80008BA59CA58D7F892B29F440E069ADCE01E1
:103C90000E94DE1D8BA59CA5029738F44FA969AD43
:103CA000CE01DF91CF910C94DE1DDF91CF9108956D
:103CB000FC01442311F086E001C080E080AF633056
:103CC000710579F03CF461307105A1F06230710545
:103CD000A1F019C06430710539F06530710569F0E3
:103CE00012C0442319F004C0442311F085E00AC037
:103CF0008BE008C0442319F004C0442311F088E08D
:103D000001C082E085AF442311F080E001C086E06D
:103D100084AF85AD808F8B3014F48F5F01C080E05D
:103D2000818F0895CF93DF93EC011EAE1BA21CA2DE
:103D30001DA21EA2EE89FF89E930F10530F5EC5C89
:103D4000FF4F0C94BD3819AE1EAA83E21DC06BA5AF
:103D50007CA540E003C06BA57CA541E0CE010E949C
:103D6000581E8BA59CA5059711F486E08EAF86E4BE
:103D70000BC019AE02C082E089AF8CE805C018AE56
:103D800002C088AD8BAF8CE38A8F8EAD9FA9890F5F
:103D90008EAFDF91CF910895CF93DF93EC017F8BAE
:103DA0006E8B6230710511F458AB4FA75CA74BA71F
:103DB000CB010397029730F06830710519F0CE01FE
:103DC0000E946A1C83E090E09AAB89ABCE01DF9140
:103DD000CF910C94921ECF93DF93EC0189A99AA9FD
:103DE0008230910571F464307105C9F07CAB6BAB26
:103DF0005EA74DA781E08DAB40E050E064E070E04D
:103E00000EC0019761F46330710549F09A01AB016E
:103E100063E070E0CE01DF91CF910C942921CE01B7
:103E20000E94CC1ECE01DF91CF910C9499200F936C
:103E30001F93CF93DF93EC018EE1FE0181938F01FD
:103E4000CF010E9457214AE665E680E70E945C2385
:103E50006B8F7C8F8D8F9E8F6881C8010E94692334
:103E600089E090E09F8B8E8B40E050E066E070E050
:103E7000CE01DF91CF911F910F910C94EB1E0F9308
:103E80001F93CF93DF93EC018B010E946C2E2227AE
:103E900017FD2095322F600F711F821F931F6FA394
:103EA00078A789A79AA740E050E067E070E0CE01CC
:103EB000DF91CF911F910F910C94EB1ECF93DF9365
:103EC000EC018E899F890697029748F44BA55CA563
:103ED00068E070E0CE01DF91CF910C94EB1ECE0133
:103EE0000E946A1C1AAA19AA89E090E09F8B8E8B07
:103EF000DF91CF910895CF92DF92EF92FF920F93CF
:103F00001F93CF93DF937C01C62ED12C8C010F5FC2
:103F10001F4FC8010E9465230197C816D90659F49E
:103F2000C701DF91CF911F910F91FF90EF90DF902C
:103F3000CF900C945E1F89E090E0F701978B868B01
:103F400084E090E092AB81ABC0E0D0E0F701238D3C
:103F5000348D458D568DBE01C8010E94F722C801DF
:103F60000E94DB2161E070E080E090E00E949B2EE7
:103F70002196CC16DD0650F7C8010E946523C817AC
:103F8000D90790F420E030E0A901BE01C8010E94E9
:103F9000F722C8010E94DB2161E070E080E090E040
:103FA0000E949B2E2196E8CFDF91CF911F910F9118
:103FB000FF90EF90DF90CF900895FC0125A9222378
:103FC00039F015AA45A556A563A974A90C94EB1E52
:103FD0000895FC0120AD662311F0215001C02F5F30
:103FE00020AF662319F08FEF9FEF02C081E090E0D1
:103FF00034AD23130CC081E0862790E092AB81ABF7
:1040000089E090E0978B868BCF010C94DD1F708D3B
:1040100067A9AC01470F511D262F30E02417350743
:104020001CF0272F280F01C020E0208F418D242F66
:1040300030E0281B390B2F3F3F4F19F0481B842FCE
:1040400001C0862F818F0895FC0121AD2F5F21AF24
:10405000223054F022E030E032AB21AB29E030E0F6
:10406000378B268B0C94DD1F0895FC0121AD215068
:1040700021AF27FF08C012AA11AA29E030E0378B30
:10408000268B0C94DD1F0895FC0196A981AD91113A
:1040900007C08F5F81AF833084F081E086AB0895E5
:1040A000815081AF18164CF012AA11AA89E090E055
:1040B000978B868BCF010C94DD1F0895CF93DF93F0
:1040C000EC0188AD8F5F88AF9BAD891309C01AAA38
:1040D00019AA89E090E09F8B8E8BCE010E94DD1F94
:1040E00028AD332727FD30958FA990E02817390791
:1040F0000CF018AEDF91CF910895DC015696ED914A
:10410000FC915797E930F10598F4E35CFF4F0C946C
:10411000BD3860E001C061E00C94E91F0C942420DC
:104120000C9435200C9444200C94501D0C945E206B
:1041300008950F931F93CF93DF93EC010E946C2E91
:104140000BA11CA12DA13EA1601771078207930747
:1041500090F1EE89FF89E930F105D8F4EA5BFF4F71
:104160000C94BD3860E001C061E0CE010E94C21C29
:1041700010C06EA901C060E0CE010E942F1E09C0D0
:1041800061E0FACFCE010E945F1D03C0CE010E9404
:10419000B01DCE0101960E94DB21CE010E947D2040
:1041A0000E946C2E2A8D620F711D811D911D6BA3C3
:1041B0007CA38DA39EA3DF91CF911F910F910895B2
:1041C0000F931F93CF93DF93EC018E899F898730E4
:1041D000910509F18930910519F0059771F50BC02A
:1041E00089A99AA9892B81F5CE01DF91CF911F91E1
:1041F0000F910C946A1C0E946C2E0BA11CA12DA186
:104200003EA10617170728073907F0F489E090E068
:104210009F8B8E8B19C00E946C2E0FA118A529A50B
:104220003AA5061717072807390738F4CE01DF919A
:10423000CF911F910F910C94B41CCE01DF91CF91BF
:104240001F910F910C949920DF91CF911F910F91A5
:104250000895FC0154AB43AB36A725A721E025AB5D
:104260006430710529F440E050E064E070E008C07B
:104270006330710539F4FC0147A550A963E070E093
:104280000C94EB1E0895CF93DF93EC0188859985FC
:10429000009711F00E9475398E8187FD05C060E09E
:1042A000DF91CF910C94392FDF91CF910895CF9367
:1042B000DF93EC018E8187FD07C061E00E94392FFA
:1042C00060E08E810E94722F81E08983DF91CF911F
:1042D0000895EF92FF920F931F93CF93DF93EC011A
:1042E0007B0188859985009711F00E9475399D851D
:1042F0008A85981303C083E090E002C084E090E0D8
:104300008E9D80018F9D100D9E9D100D11241D838B
:104310000C83C8010E94DD3899878887009741F097
:10432000A80160E070E00E94153BFB82EA8204C0B5
:104330001D821C821B821A82DF91CF911F910F91E7
:10434000FF90EF900895FC0121E0958582859813F8
:1043500020E0CB0136E0969587953A95E1F7482F16
:1043600043704587CB0154E0969587955A95E1F7C0
:10437000382F33703287CB01969587959695879520
:1043800083708387862F8370848781E06F3F7105F8
:1043900011F008F080E0808380859185892B51F0B1
:1043A00091E0431390E0921729F062817381CF016D
:1043B0000C9469210895CF92DF92EF92FF920F93B0
:1043C0001F93CF93DF93CDB7DEB729970FB6F8943D
:1043D000DEBF0FBECDBF8C01DC0118968D919C9184
:1043E0001997892B09F49AC00E94782EF801C68487
:1043F000D784E088F1886C197D098E099F096233A2
:1044000071058105910580F3F894848195819A83E3
:104410008983A085B1857D01EFEFEE1AFE0A8C91AC
:104420008987D8019C9152960D90BC91A02DF801DE
:104430008489992309F42EC09C91982B98879C918C
:10444000809589238F838F818E8388E08D83588523
:104450006F8149853D812E8189819A81F7015C9325
:1044600047FD252F3A952C93262F39F0441F00C085
:1044700000006C93000000C0F2CF38E041916C93D3
:104480000000019761F7F801B38BA28B49873D8348
:104490002E8338C09C91982B98879C918095892376
:1044A0008F838F818C8388E08B8358856F814985CA
:1044B0003B812C8189819A81F7015C9347FD252FEF
:1044C00000C000C02C9300C000C000C000C000C0ED
:1044D0006C930000262F3A9541F0441F000000C065
:1044E00000C000C000C000C0E8CF38E0419100C06B
:1044F0006C9300C0019709F7F801B38BA28B498731
:104500003B832C839A83898378940E94782ED801E8
:104510001E966D937D938D939C93519729960FB61C
:10452000F894DEBF0FBECDBFDF91CF911F910F91E9
:10453000FF90EF90DF90CF9008951F93CF93DF937C
:10454000EC01162F8981882331F08E8187FD03C00D
:1045500060E00E94392F1E838981882341F061E049
:10456000812F0E94392F60E0812F0E94722F812FAE
:1045700090E0FC01E551FE4EE491F0E0EE0FFF1FEC
:10458000E75FFD4E259134913B8B2A8BFC01E9526C
:10459000FE4E84918C8BDF91CF911F910895EF9205
:1045A000FF920F931F93CF93DF931F92CDB7DEB788
:1045B0007C018B01FC011182178211861086168600
:1045C0001786108A118AB90149830E94A321B80174
:1045D000C7010E9469214981642FC7010F90DF91B3
:1045E000CF911F910F91FF90EF900C949D22CF924D
:1045F000DF92EF92FF920F931F93CF93DF93FC0113
:10460000828193816817790708F04DC0CA01AA27F3
:10461000BB27182FC32ED42EE52EFF24DC2DC22F4E
:104620000781002361F0809FC0011124192FC09ED3
:1046300060011124DD2D209FC0011124C92FF584B4
:104640008285A085B185F81208C0CB01880F991F1B
:10465000860F971F8A0F9B1F17C0CB01880F991FCA
:10466000880F991F8A0F9B1F452F5527662777278D
:10467000DC01AF0DB11D002329F0409F90011124F2
:10468000232F01C0242F2C932285DC01A20FB11D02
:104690001C932385DC01A20FB11DDC932485FC0152
:1046A000E20FF11DC083DF91CF911F910F91FF9019
:1046B000EF90DF90CF900895962F50E060E070E08B
:1046C000592B682BCB01BA010895FC01828193819B
:1046D0000895FF920F931F93CF93DF93EC01FF2474
:1046E000F394F60E2F81F21679F108851985215081
:1046F000B9F06F3F59F430E040E050E06FEF7FEFEA
:1047000080E090E00E949E38B9010CC08F2D90E0AF
:10471000982F88270197622F70E00E94543802C0BA
:1047200060E070E0F8018C819D81AF01401B510B6E
:104730004817590740F44081469FC001479F900D9C
:1047400011249193F0CFFF82DF91CF911F910F91B0
:10475000FF900895AF92BF92CF92DF92EF920F93A6
:104760001F93CF93DF9300D0CDB7DEB75C01122F3C
:104770008FE090E04A8369830E9474366C01E12CDB
:1047800002E0212F4A8169810E94D20BF501D1827A
:10479000C0821283148213821682158210861782B9
:1047A00011860F900F90DF91CF911F910F91EF9095
:1047B000DF90CF90BF90AF9008950F931F93CF934A
:1047C000DF93EC0102E010E01B870A878881998162
:1047D0000E94EF0C2D813E81280F391F3E832D83CF
:1047E0008B819C812817390791F0281739071CF411
:1047F0001B861A860AC0821793072CF481E090E08A
:104800009B878A8702C01B870A873C832B838A8504
:104810009B85DF91CF911F910F910895FC018781B6
:1048200090850895FC018185811111860895CF93AB
:10483000DF93EC01888199810E94190C8A810E9482
:10484000A82F2F813885892B51F42F5F3F4F388750
:104850002F832130310541F481E0898705C012168C
:10486000130614F418861F82DF91CF910895CF921A
:10487000EF920F93CF93DF93EC010E9423262C2D10
:104880004E2D602FCE0186960E94AA23FE01E75B83
:10489000FF4F10821EAA1DAA1AAA1BAA1CAA80E0FA
:1048A00090E098AF8FAB0196229689309105C9F7B9
:1048B000DF91CF910F91EF90CF900895FC0182A9E5
:1048C0000895CF93DF93EC011EAA1DAA1AAA0E9495
:1048D0009526CE01DF91CF910C949726FC0183A9F8
:1048E0000895FC0113AA0895FC01E75BFF4F6623BE
:1048F00061F04081242F30E02830310514F44F5FFF
:10490000408321E0FC0124AB08952081222311F093
:1049100021502083FC0114AA0895FC0185A996A9C1
:104920000895CF92DF92EF92FF920F931F93CF9350
:10493000DF9300D000D000D0CDB7DEB78C01C62EFB
:104940007A01D22E0E94952641E0B701C8010E944B
:104950006526CC2091F060EA71E0CE0101960E94BC
:10496000893321E040E0BE016F5F7F4FC8010E94A4
:104970003026CE0101960E941B33DD2091F062EAC1
:1049800071E0CE0101960E94893321E04EE1BE0123
:104990006F5F7F4FC8010E943026CE0101960E94B2
:1049A0001B33C8010E94972626960FB6F894DEBFE7
:1049B0000FBECDBFDF91CF911F910F91FF90EF9070
:1049C000DF90CF9008950F931F93CF93DF9300D084
:1049D00000D000D0CDB7DEB78C01FC0185A996A927
:1049E000009791F5E75BFF4F8081F801E80FF11D1B
:1049F000E80FF11D07A8F0ADE02DE830F10508F54E
:104A0000E15BFF4F0C94BD3864EA71E05AC06AEA7A
:104A100071E002C061EB71E0CE0101960E94893322
:104A200021E048C067EB71E0F7CF6BEB71E0F4CFAA
:104A300060EC71E0F1CF64EC71E0EECF6AEC71E014
:104A4000EBCF6FEC71E031C081309105C9F4E0919A
:104A50001201F09113014AE06081CE0101960E949B
:104A6000D733E0911201F091130180818E3130F043
:104A700064ED71E0CE0101960E94BF3320E026C0B4
:104A80008230910551F4F80184A9882319F069ED69
:104A900071E00BC06EED71E014C0039711F5F801E1
:104AA00084A9882361F061EE71E0CE0101960E9435
:104AB000893320E0AE014F5F5F4F61E00BC067EECE
:104AC00071E0CE0101960E94893321E0AE014F5F73
:104AD0005F4F60E0C8010E949124CE0101960E94C0
:104AE0001B3326960FB6F894DEBF0FBECDBFDF9105
:104AF000CF911F910F910895CF93DF93EC0181E047
:104B00008AABCE010E949526CE010E94E324CE01FD
:104B1000DF91CF910C949726CF93DF93EC018DA971
:104B20009EA90097C1F5FE01E75BFF4F8081FE0162
:104B3000E80FF11DE80FF11D07A8F0ADE02DE830FA
:104B4000F10568F4E95AFF4F0C94BD3866E77CE044
:104B500002C069E67CE081E095E00E942E32CE0141
:104B6000DF91CF910C9461246BE57CE0F4CF81E080
:104B70008BABF5CF83E090E002C082E090E09EAB8B
:104B80008DAB1CAA36C081E090E09EAB8DAB31C0EE
:104B900068E47CE0E0CF8130910539F41EAA1DAABB
:104BA000FE01E75BFF4F108224C08330910591F432
:104BB0008CA9882319F068E37CE002C067E27CE0FE
:104BC00081E095E00E942E32FE01E75BFF4F85E019
:104BD0008083C5CF029791F41EAA1DAA86E0FE012C
:104BE000E75BFF4F80838CA9882319F064E17CE0A8
:104BF000B2CFCE01DF91CF910C94E324DF91CF911E
:104C00000895CF93DF93EC01E0911201F09113012D
:104C1000608170E080E090E00E94233720E030E087
:104C200040EF51E40E948A3620E030E040E751E452
:104C30000E94F1370E94F2366F5F7F4FCE01DF9105
:104C4000CF910C948B26CF93DF93EC010E943E1AF8
:104C5000CE010E944718CE01DF91CF910C944219EA
:104C60008F92AF92BF92CF92EF92FF920F931F93CA
:104C7000552747FD5095FB016081718188248394FD
:104C8000AAE0AA2EB12C222359F0E5E0CE2EFDE2B7
:104C9000EF2EF2E0FF2E02E01FE022E030E00AC03B
:104CA00028E0C22E3DEEE32E31E0F32E02E81CE0B8
:104CB00020E030E00E94F7141F910F91FF90EF90D9
:104CC000CF90BF90AF908F900895EF92FF920F9387
:104CD0001F93CF93DF93EC017B01142FFB016081C5
:104CE000718101E025E04DE252E00E94A215E0E270
:104CF000F0E0E81BF90BF7FD3196AF0155954795AC
:104D0000212FB701CE01DF91CF911F910F91FF901D
:104D1000EF900C9430269B01215031092F30310542
:104D200018F440E10C94491A08950C9447180C9417
:104D30004219CF93DF93EC014FEF6FEF8FEF0E949B
:104D40005C23688379838A839B831D821C82DF9125
:104D5000CF9108951F93CF93DF93EB0110E04DE6C1
:104D600052E0612FCE010E94C10D185F1032B9F7D9
:104D7000CE01DF91CF911F910C94D30DFC01CB019B
:104D8000BA015583448320813181428153810C943F
:104D9000DE1BEF92FF920F93CF93DF93EC017B0129
:104DA000842F402F622F0E945C239B01AC016883FB
:104DB00079838A839B836C817D81C701DF91CF9149
:104DC0000F91FF90EF900C94DE1BCF93DF93EB01DC
:104DD000CE010E941224811107C061E070E080E0E2
:104DE00090E00E949B2EF4CFDF91CF910895EF9237
:104DF000FF920F931F93CF93DF938C01EB017A0106
:104E0000CE010E941224811117C061E070E080E0A1
:104E100090E00E949B2ECE010E94DD23009729F096
:104E2000019771F742E050E002C041E050E0B70165
:104E3000C8010E94BE26E4CFDF91CF911F910F9150
:104E4000FF90EF9008950F931F93CF93DF938B0103
:104E5000CAE0D0E0C8010E94670D66EA70E080E019
:104E600090E00E949B2EC8010E946C0D6DE471E0E1
:104E700080E090E00E949B2E219761F7DF91CF9117
:104E80001F910F9108950F931F93CF93DF93EB0121
:104E9000CB010E94630F0CE41DE161E070E080E053
:104EA00090E00E949B2ECE010E944B1201501109EE
:104EB000A1F7CE01DF91CF911F910F910C94150EA8
:104EC0008F929F92AF92BF92CF92DF92EF92FF921A
:104ED0000F931F93CF93DF93EC016B017A0159017C
:104EE00048010FEF2FEF4FEFB7010E94C926B50120
:104EF000CE010E94AA266BE971E181E095E00E9453
:104F00002E32A701B601CE010E94F72640E050E004
:104F1000B701CE010E94BE2600E020E04FEFB701AE
:104F2000CE010E94C926B601CE010E94E5262FEFD0
:104F300040E0B701CE010E94C926B601CE010E9411
:104F4000E5260FEF20E040E0B701CE010E94C92620
:104F5000B601CE010E94E5262FEF4FEFB701CE013B
:104F60000E94C92662E971E181E095E00E942E323B
:104F7000B501CE010E944327B401CE010E94232730
:104F800062E871E181E095E0DF91CF911F910F918F
:104F9000FF90EF90DF90CF90BF90AF909F908F9059
:104FA0000C942E32DF92EF92FF920F931F93CF93C8
:104FB000DF9300D000D000D0CDB7DEB78B01E090FA
:104FC0001001F09011016DE772E0CE0101960E9490
:104FD0008933BE016F5F7F4FC8010E948134D82E94
:104FE000CE0101960E941B33DD2021F0C7010E94F3
:104FF000150EC9C063E872E0CE0101960E948933A4
:10500000BE016F5F7F4FC8010E948134D82ECE0150
:1050100001960E941B33DD2021F0C7010E94170F6B
:10502000B2C067E872E0CE0101960E948933BE01EA
:105030006F5F7F4FC8010E948134D82ECE01019648
:105040000E941B33DD2021F0C7010E940D0F9BC081
:105050006CE872E0CE0101960E948933BE016F5F59
:105060007F4FC8010E948134D82ECE0101960E9444
:105070001B33DD2021F0C7010E94630F84C063E968
:1050800072E0CE0101960E948933BE016F5F7F4FAF
:10509000C8010E948134D82ECE0101960E941B3394
:1050A000DD2021F0C7010E949C0F6DC069E972E00C
:1050B000CE0101960E948933BE016F5F7F4FC80108
:1050C0000E948134D82ECE0101960E941B33DD2030
:1050D00081F0F8012481358145E050E0B801CE012E
:1050E00001960E94F13469817A81C7010E942712DA
:1050F00046C06FE972E0CE0101960E948933BE017D
:105100006F5F7F4FC8010E948134D82ECE01019677
:105110000E941B33DD2081F0F8012481358145E0B8
:1051200050E0B801CE0101960E94F13469817A8184
:10513000C7010E94F10F23C064EA72E0CE0101961C
:105140000E948933BE016F5F7F4FC8010E94813486
:10515000D82ECE0101960E941B33DD20A1F0F8016C
:105160002481358147E050E0B801CE0101960E94CC
:10517000F134BE016F5F7F4FC7010E948911CE01DC
:1051800001960E941B3326960FB6F894DEBF0FBE21
:10519000CDBFDF91CF911F910F91FF90EF90DF90E6
:1051A0000895CF93DF93EC016CEA72E00E94DF2850
:1051B00086EB92E099838883DF91CF910895CF9316
:1051C000DF93EC018EE191E089939993CE010E94E7
:1051D00089336EE2CE01DF91CF910C943034CF92BF
:1051E000DF92EF92FF920F931F93CF93DF9300D044
:1051F00000D000D0CDB7DEB78C017B01BC016E5F63
:105200007F4FC7010E9481348823F1F0D801ED91CE
:10521000FC911197C080D180F701248135811696C9
:105220004D915C911797B701CE0101960E94F13420
:10523000BE016F5F7F4FC801F6010995CE0101964F
:105240000E941B3381E001C080E026960FB6F894DF
:10525000DEBF0FBECDBFDF91CF911F910F91FF90A9
:10526000EF90DF90CF900895CF93DF93EC01FB0197
:10527000248135810E94F134CE01DF91CF910895D0
:10528000CF93DF93EC0168EB72E00E94DF288AE1A4
:1052900093E099838883DF91CF91089580911201E3
:1052A000909113010C94171FCF92DF92EF92FF920F
:1052B0000F931F938A019B01112722273327C52EA5
:1052C000202F4C2D80911201909113011F910F916D
:1052D000FF90EF90DF90CF900C94711CCF92DF92F3
:1052E000EF92FF920F931F93CF93DF93CDB7DEB76B
:1052F00062970FB6F894DEBF0FBECDBF8B017A0167
:105300006901BA01C8010E948134882309F445C0AB
:10531000B801CE010D960E94B6336BE773E0CE0163
:1053200007960E948933B701CE0101960E94B633D9
:105330006AEA72E0CE0101960E944334AE01495FF1
:105340005F4FBC01CE010D960E943635CE0101960D
:105350000E941B33CE0107960E941B3360E070E071
:10536000CE010D960E94A1348256843138F4E82F84
:10537000F0E0EE5FFC4F408150E002C040E050E0C2
:10538000B60180911201909113010E94EB1ECE0193
:105390000D960E941B3381E001C080E062960FB63B
:1053A000F894DEBF0FBECDBFDF91CF911F910F915B
:1053B000FF90EF90DF90CF9008956F927F928F9241
:1053C0009F92AF92BF92CF92DF92EF92FF920F9394
:1053D0001F93CF93DF93CDB7DEB72A970FB6F8941C
:1053E000DEBF0FBECDBF6C018B01E0901201F090CB
:1053F00013016DEB72E0CE0101960E948933BE016C
:105400006F5F7F4FC8010E948134B82ECE01019694
:105410000E941B33BB2089F046E050E0B801CE016A
:1054200001960E943429CE0101960E945736AB01A5
:10543000BC01C6010E94542974C164EC72E0CE0123
:1054400001960E948933BE016F5F7F4FC8010E94A1
:105450008134B82ECE0101960E941B33BB2079F017
:1054600046E050E0B801CE0101960E943429CE01F9
:1054700001960E945736C7010E94821C52C16BECF4
:1054800072E0CE0101960E948933BE016F5F7F4FAB
:10549000C8010E948134B82ECE0101960E941B33B0
:1054A000BB2079F045E050E0B801CE0101960E94A2
:1054B0003429CE0101960E945736C7010E947B1FF6
:1054C00030C161ED72E0CE0101960E948933BE01C8
:1054D0006F5F7F4FC8010E948134B82ECE010196C4
:1054E0000E941B33BB2091F047E050E0B801CE0191
:1054F00001960E943429CE0101960E945736462F0C
:1055000060E070E0C7010E94CE1B0BC169ED72E044
:10551000CE0101960E948933BE016F5F7F4FC801A3
:105520000E948134B82ECE0101960E941B33BB200D
:1055300079F045E050E0B801CE0101960E9434298F
:10554000CE0101960E945736C7010E943F1FE9C055
:1055500061EA72E0CE0101960E948933BE016F5F5D
:105560007F4FC8010E948134B82ECE0101960E945F
:105570001B33BB2021F0C7010E946A1C1FC16FEDC5
:1055800072E0CE0101960E948933BE016F5F7F4FAA
:10559000C8010E948134B82ECE0101960E941B33AF
:1055A000BB2021F0C7010E94B41C08C16FE772E064
:1055B000CE0101960E948933BE016F5F7F4FC80103
:1055C0000E948134B82ECE0101960E941B33BB206D
:1055D000A1F084E0682E712CC62CD12CF8018481B6
:1055E0009581C816D90608F0A1C0B601C8010E946D
:1055F00090348C3209F0B5C099C06DE772E0CE01ED
:1056000001960E948933BE016F5F7F4FC8010E94DF
:105610008134B82ECE0101960E941B33BB2021F0AD
:10562000C7010E945E1FCAC063EE72E0CE01019600
:105630000E94893320E030E0AE014F5F5F4FB80138
:10564000C6010E946E29F82ECE0101960E941B33DE
:10565000F110B4C069EE72E0CE0101960E94893368
:1056600021E030E0AE014F5F5F4FB801C6010E94FC
:105670006E29F82ECE0101960E941B33F1109EC0B8
:1056800068EF72E0CE0101960E94893322E030E09B
:10569000AE014F5F5F4FB801C6010E946E29F82E20
:1056A000CE0101960E941B33F11088C060EF72E0BA
:1056B000CE0101960E94893324E030E0AE014F5FB5
:1056C0005F4FB801C6010E946E29F82ECE010196E7
:1056D0000E941B33F11072C066EF72E0CE0101969A
:1056E0000E94893323E030E0AE014F5F5F4FB80185
:1056F000C6010E946E29F82ECE0101960E941B332E
:10570000F1105CC06DEF72E0CE0101960E9489330A
:1057100026E030E0AE014F5F5F4FB801C6010E9446
:105720006E29CE0101960E941B3348C020E030E074
:10573000A9016394C62CD12CF80184819581C816E7
:10574000D906F0F4B601C8012F83388749875A87F4
:105750000E9490342F81388549855A858C32A9F46E
:105760000FC0B601C8010E949034972D990F792E71
:10577000770C770C790EF0ED7F0E780E63942CCFBA
:10578000672DC7010E94151B19C0AAE0B0E00E9456
:10579000C3384B015C01B601C8010E949034282F28
:1057A000332727FD309520533109442737FD409595
:1057B000542F280D391D4A1D5B1DBBCF2A960FB6ED
:1057C000F894DEBF0FBECDBFDF91CF911F910F9137
:1057D000FF90EF90DF90CF90BF90AF909F908F9011
:1057E0007F906F900895DF92EF92FF920F931F9337
:1057F000CF93DF9300D000D000D0CDB7DEB77C01CF
:105800008B016DE772E0CE0101960E948933BE01E3
:105810006F5F7F4FC8010E948134D82ECE01019660
:105820000E941B33DD2031F0F701808591850E94B5
:10583000B00D7CC06EE173E0CE0101960E94893309
:10584000BE016F5F7F4FC8010E948134D82ECE0108
:1058500001960E941B33DD2031F0F7018085918590
:105860000E94670D63C06CE173E0CE0101960E9457
:105870008933BE016F5F7F4FC8010E948134D82EEB
:10588000CE0101960E941B33DD2031F0F7018085A7
:1058900091850E946C0D4AC063E273E0CE010196CF
:1058A0000E948933BE016F5F7F4FC8010E9481341F
:1058B000D82ECE0101960E941B33DD20F1F0F801B5
:1058C0002481358146E050E0B801CE0101960E9466
:1058D000F134CE0101960E945736AB01BC0104EFB2
:1058E00011E020E030E0F701808591850E94710D84
:1058F000CE0101960E941B3319C06AE273E0CE010B
:1059000001960E948933BE016F5F7F4FC8010E94DC
:105910008134182FCE0101960E941B33112331F0E0
:105920006DEA71E181E095E00E942E3226960FB675
:10593000F894DEBF0FBECDBFDF91CF911F910F91C5
:10594000FF90EF90DF9008950F931F93CF93DF9315
:10595000EC018B0162E373E00E94DF288DE393E0AA
:105960009983888319870887DF91CF911F910F91C1
:105970000895FC01808591850C94520DBF92CF92C1
:10598000DF92EF92FF920F931F93CF93DF93CDB7E8
:10599000DEB72C970FB6F894DEBF0FBECDBF6C01FB
:1059A0008B016FE373E0CE0101960E948933BE0143
:1059B0006F5F7F4FC8010E948134F82ECE0101969F
:1059C0000E941B33FF2009F442C06BE773E0CE0155
:1059D00007960E94893388E0B82EEB2CF12CB70192
:1059E000C8010E9490348C3231F0F8018481958195
:1059F000E816F90608F1B801CE0101960E94B63307
:105A0000A7014F5F5F4F60E070E0CE0101960E94FA
:105A10002936AE014F5F5F4FBE01695F7F4FC60100
:105A200008960E946F2DCE0101960E941B33CE0175
:105A300007960E941B330BC0B701C8010E94903427
:105A4000682FCE0107960E943034B394C6CF2C96AF
:105A50000FB6F894DEBF0FBECDBFDF91CF911F917F
:105A60000F91FF90EF90DF90CF90BF900895CF936C
:105A7000DF93EC0168E473E00E94DF2884E593E0A3
:105A800099838883CE010896DF91CF910C94482D9D
:105A900008950F931F93CF93DF93EC018B0160E088
:105AA00070E0C8010E94A134F801248135812130C1
:105AB000310511F482E10DC02230310511F480E18D
:105AC00008C02330310531F48D3211F48DE001C06E
:105AD0008EE08983DF91CF911F910F910895AF924E
